:020000040800F2
:1000000000500020913B0008213B0008273B0008DE
:100010002D3B0008333B0008393B0008000000007E
:100020000000000000000000000000003F3B00084E
:100030004B3B000800000000573B0008633B0008F2
:10004000D93B0008D93B0008D93B0008D93B000840
:10005000D93B0008D93B0008D93B0008D93B000830
:10006000D93B0008D93B0008D93B0008D93B000820
:10007000D93B0008D93B0008D93B0008D93B000810
:10008000D93B0008D93B0008D93B0008D93B000800
:10009000D93B0008D93B0008D93B0008D93B0008F0
:1000A000D93B0008D93B0008D93B0008D93B0008E0
:1000B000713B0008D93B0008D93B0008D93B000838
:1000C000D93B0008D93B0008D93B0008D93B0008C0
:1000D000D93B0008D93B0008D93B0008D93B0008B0
:1000E000D93B0008D93B0008D93B000800000000BC
:1000F0000000000000000000000000000000000000
:0C01000000000000000000005FF808F1A3
:10010C0010B5054C237833B9044B13B10448AFF345
:10011C0000800123237010BD280000200000000087
:10012C00505C000808B5034B1BB103490348AFF3FF
:10013C00008008BD000000002C000020505C00086E
:10014C0080B588B000AF786003F046FF01237B6177
:10015C000123FB617B68BB6100233B6107F10C024F
:10016C0007F110031146184604F01EF803F05AFF6D
:10017C0000BF2037BD4680BDB0B582B000AF7860FF
:10018C000B467B8003F028FF7B8800221C4615461B
:10019C0022462B467968012003F0AEFE03F042FFA5
:1001AC0000BF0837BD46B0BD80B586B000AFF86063
:1001BC00B9601346FB8003F00FFF0023FB820CE0B9
:1001CC00FA8AFB68D018FB8ABA6813441B88194654
:1001DC00FFF7D2FFFB8A0233FB82FA8AFB889A4232
:1001EC00EED303F01FFF00BF1837BD4680BD80B4AF
:1001FC0083B000AF78607B681B78DBB218460C3795
:10020C00BD4680BC704780B483B000AF78607B681B
:10021C001B889BB218460C37BD4680BC704780B417
:10022C0083B000AF78607B68D3E900231046194691
:10023C000C37BD4680BC704780B487B000AFF86007
:10024C00B9601346FB800023FB820CE0FA8AFB6842
:10025C0013441946FB8ABA6813440A78D2B21A704E
:10026C00FB8A0133FB82FA8AFB889A42EED300BFE9
:10027C0000BF1C37BD4680BC704780B582B000AF54
:10028C000346FB80FB88184603F004FD00BF0837CB
:10029C00BD4680BD80B582B000AF78600B46FB7068
:1002AC001346BB70BB78002B08D17B6858687B6801
:1002BC001B890022194604F0BAF90AE0BB78012B1D
:1002CC0007D17B6858687B681B890122194604F0AA
:1002DC00AEF97B6858697B68198BFB7803F00103D6
:1002EC00DBB21A4604F0A3F97B68D8697B68198CD9
:1002FC00FB785B08DBB203F00103DBB21A4604F0B7
:10030C0096F97B68586A7B68198DFB789B08DBB281
:10031C0003F00103DBB21A4604F089F97B68D86A52
:10032C007B68198EFB78DB08DBB203F00103DBB2D0
:10033C001A4604F07CF97B68586B7B68198FFB7844
:10034C001B09DBB203F00103DBB21A4604F06FF9B0
:10035C007B68D86B7B68B3F84010FB785B09DBB229
:10036C0003F00103DBB21A4604F061F97B68586CA8
:10037C007B68B3F84810FB789B09DBB203F00103F0
:10038C00DBB21A4604F053F97B68D86C7B68B3F87F
:10039C005010FB78DB09DBB21A4604F048F97B6895
:1003AC00D8687B681B8A0022194604F040F90120AA
:1003BC00FFF763FF7B68D8687B681B8A01221946AC
:1003CC0004F035F90120FFF758FF7B68D8687B688B
:1003DC001B8A0022194604F02AF90120FFF74DFF71
:1003EC0000BF0837BD4680BD80B584B000AF7860D3
:1003FC000B46FB701346BB70FB781B09FB73FB7839
:10040C00BB73BB78002B08D17B6858687B681B8951
:10041C000022194604F00BF90AE0BB78012B07D136
:10042C007B6858687B681B890122194604F0FFF829
:10043C007B68586B7B68198FFB7B03F00103DBB285
:10044C001A4604F0F4F87B68D86B7B68B3F840105C
:10045C00FB7B5B08DBB203F00103DBB21A4604F052
:10046C00E6F87B68586C7B68B3F84810FB7B9B08FC
:10047C00DBB203F00103DBB21A4604F0D8F87B6858
:10048C00D86C7B68B3F85010FB7BDB08DBB203F055
:10049C000103DBB21A4604F0CAF87B68D8687B68A3
:1004AC001B8A0022194604F0C2F80120FFF7E5FE72
:1004BC007B68D8687B681B8A0122194604F0B7F860
:1004CC000120FFF7DAFE7B68D8687B681B8A002264
:1004DC00194604F0ACF80120FFF7CFFE7B68586B8F
:1004EC007B68198FBB7B03F00103DBB21A4604F067
:1004FC009EF87B68D86B7B68B3F84010BB7B5B08BD
:10050C00DBB203F00103DBB21A4604F090F87B680F
:10051C00586C7B68B3F84810BB7B9B08DBB203F0CC
:10052C000103DBB21A4604F082F87B68D86C7B6856
:10053C00B3F85010BB7BDB08DBB203F00103DBB27A
:10054C001A4604F074F87B68D8687B681B8A002212
:10055C00194604F06CF80120FFF78FFE7B68D86811
:10056C007B681B8A0122194604F061F80120FFF711
:10057C0084FE7B68D8687B681B8A0022194604F0CD
:10058C0056F80120FFF779FE00BF1037BD4680BD3D
:10059C0080B584B000AFF8607B600B46FB721346ED
:1005AC00BB72FB6800221A70FB68FA7A5A70FB68FF
:1005BC00BA7A9A70FB687A685A60FB683A8B1A812F
:1005CC00FB68FA69DA60FB683A8C1A82FB687A6A13
:1005DC005A63FB683A8D1A87FB68FA6ADA63FB6820
:1005EC003A8EA3F84020FB687A6B5A64FB683A8F0A
:1005FC00A3F84820FB68FA6BDA64FB68B7F8402074
:10060C00A3F85020FB68282283F85520FB680622AB
:10061C0083F85220FB680C2283F85320FB681422C9
:10062C0083F854203220FFF728FE00223321F8688B
:10063C00FFF7DAFE0520FFF720FE00223321F868D1
:10064C00FFF7D2FE0520FFF718FE00223221F868D2
:10065C00FFF7CAFE0520FFF710FEFB6893F8523037
:10066C0000221946F868FFF7BFFEFB6893F8533079
:10067C0000221946F868FFF7B7FEFB6893F8543070
:10068C0000221946F868FFF7AFFEFB6893F8553067
:10069C0000221946F868FFF7A7FE00220121F8682E
:1006AC00FFF7A2FE00220221F868FFF79DFE00BFB3
:1006BC001037BD4680BD000080B584B000AF7860B7
:1006CC000B46FB701346BB700023FB731D4BBB60CA
:1006DC007B685B78FA789A4203D37B685B78013B42
:1006EC00FB707B689B78BA789A4203D37B689B78C3
:1006FC00013BBB70BB7810333B4413F8082CFB78E0
:10070C001344FB737B681B78102B09D1FB7B63F0C4
:10071C007F03DBB2002219467868FFF7BBFD0CE0C3
:10072C007B681B78002B08D1FB7B63F07F03DBB26B
:10073C00002219467868FFF757FE00BF1037BD46F8
:10074C0080BD00BF0040145480B582B000AF78600B
:10075C000B46FB707B681B78102B06D1FB780122B3
:10076C0019467868FFF796FD09E07B681B78002B2B
:10077C0005D1FB78012219467868FFF735FE00BFDA
:10078C000837BD4680BD80B582B000AF7860396057
:10079C0007E03B685A1C3A601B7819467868FFF7EB
:1007AC00D3FF3B681B78002BF3D100BF00BF083789
:1007BC00BD4680BD80B582B000AF78607B681B7889
:1007CC00102B05D1002201217868FFF763FD08E0AA
:1007DC007B681B78002B04D1002201217868FFF77D
:1007EC0003FE0520FFF749FD00BF0837BD4680BD5D
:1007FC0080B582B000AF78604FF400510A4803F026
:10080C002EFF0A4B1B78002B06D0084B1B78013BA4
:10081C00DAB2064B1A7002E0044B00221A7000BFC9
:10082C000837BD4680BD00BF00100140000000200D
:10083C0080B58EB00CAF03F0CBF900F055F900F099
:10084C001DFA00F097F900F0CBF902F04DFE0823E9
:10085C000A93974B099310230893954B07932023E6
:10086C000693934B059340230493914B039380235E
:10087C0002938F4B01934FF4007300938C4B022225
:10088C0010218C48FFF784FE8B4804F005FE02F023
:10089C0039FA0346002B01D102F066FC002200213C
:1008AC008448FFF709FF85498248FFF76CFF4FF436
:1008BC008071834800F082FA0346002B00F081809F
:1008CC00804B0F221A70012200217A48FFF7F4FEA8
:1008DC007D497848FFF757FF0023FB7146E07B48C2
:1008EC0002F026FE0346002B25D101224FF4804155
:1008FC006F4803F09CFE01224FF480516C4803F0CA
:10090C0096FE734B1B68184603F0C4F900224FF493
:10091C008051674803F08BFE00224FF480416448FD
:10092C0003F085FE694802F0BDF90346FB71FB79C3
:10093C001B09FB711EE04FF48071614800F03EFA18
:10094C000346BB71BB79002B10D0032B00D007E002
:10095C0002F0CEFC6323FB715A4B00221A7005E0A7
:10096C000223FB71574B00221A7000BF554B1B78AA
:10097C00002BB4D1FB79012B02D0632B20D002E0E9
:10098C0000F06AFA1DE04B48FFF714FF002200212B
:10099C004848FFF791FE4F494648FFF7F4FE012205
:1009AC0000214448FFF788FE4B494248FFF7EBFE15
:1009BC004FF47A7003F06EF93E48FFF7FBFE00E04F
:1009CC0000BF424802F0B4FD0346002B7FF466AF33
:1009DC0001224FF48041364803F029FE01224FF4E6
:1009EC008051334803F023FE394B1B68184603F043
:1009FC0051F900224FF480512D4803F018FE0022CB
:100A0C004FF480412A4803F012FE304802F04AF9B4
:100A1C000346002B25D001224FF40051244803F04B
:100A2C0006FE2448FFF7C6FE002200212148FFF7EE
:100A3C0043FE2A491F48FFF7A6FE012200211D484C
:100A4C00FFF73AFE26491B48FFF79DFE41F288301E
:100A5C0003F020F900224FF40051154803F0E7FD94
:100A6C0018E01448FFF7A6FE002200211148FFF7FA
:100A7C0023FE1C490F48FFF786FE012200210D487A
:100A8C00FFF71AFE16490B48FFF77DFE41F288303E
:100A9C0003F000F90748FFF78DFE002200210548FE
:100AAC00FFF70AFE05490348FFF76DFEF6E600BFA7
:100ABC00000C0140F40000209C000020685C000841
:100ACC000008014000000020785C0008E4000020D1
:100ADC0018000020885C0008945C0008A45C0008E6
:100AEC004C010020B05C000880B590B000AF07F15D
:100AFC00180328220021184605F078F83B1D002227
:100B0C001A605A609A60DA601A610123BB614FF473
:100B1C008033FB6100233B620123BB6202237B63B6
:100B2C004FF48033BB634FF4E013FB6307F11803FE
:100B3C00184603F0ADFD0346002B01D002F0A6FCD5
:100B4C000F237B600223BB600023FB604FF48063A8
:100B5C003B6100237B613B1D0221184604F01AF80F
:100B6C000346002B01D002F091FC00BF4037BD467C
:100B7C0080BD000080B500AF174B184A1A60164BA9
:100B8C004FF482725A60144B00229A60124B00226E
:100B9C00DA60114B00221A610F4B00225A610E4B86
:100BAC004FF400729A610C4B3022DA610A4B00222E
:100BBC001A62094B00225A62074B00229A62064BBA
:100BCC000A22DA62044804F04BF90346002B01D0E8
:100BDC0002F05CFC00BF80BD4400002000300140EE
:100BEC0080B586B000AF07F1080300221A605A6086
:100BFC009A60DA603B4600221A605A601E4B4FF036
:100C0C0080421A601C4B48F69F425A601A4B0022D5
:100C1C009A60194B40F2CF72DA60174B00221A61BE
:100C2C00154B80229A61144804F0E6FB0346002B16
:100C3C0001D002F02BFC4FF48053BB6007F108038A
:100C4C0019460D4804F082FD0346002B01D002F03A
:100C5C001DFC00233B6000237B603B461946064885
:100C6C0004F054FF0346002B01D002F00FFC00BF30
:100C7C001837BD4680BD00BF9C00002080B588B0F1
:100C8C0000AF07F1100300221A605A609A60DA6014
:100C9C00464B9B69454A43F010039361434B9B6958
:100CAC0003F01003FB60FB68404B9B693F4A43F029
:100CBC00200393613D4B9B6903F02003BB60BB6831
:100CCC003A4B9B69394A43F004039361374B9B6958
:100CDC0003F004037B607B68344B9B69334A43F01D
:100CEC0008039361314B9B6903F008033B603B683D
:100CFC0000224FF400512E4803F099FC002248F2D8
:100D0C0010412C4803F093FC002247F2F8312A489A
:100D1C0003F08DFC4FF400533B6101237B610023F6
:100D2C00BB610223FB6107F110031946204803F055
:100D3C00E3FA48F210433B6101237B610023BB6162
:100D4C000223FB6107F1100319461A4803F0D4FA89
:100D5C0047F2F8333B6101237B610023BB61022323
:100D6C00FB6107F110031946134803F0C5FA4FF461
:100D7C0000433B6100237B610123BB6107F110033E
:100D8C0019460D4803F0B8FA4FF480733B61002309
:100D9C007B610123BB6107F110031946054803F081
:100DAC00ABFA00BF2037BD4680BD00BF001002402B
:100DBC000010014000080140000C014080B584B0D7
:100DCC0000AF78600B467B807B881946786803F00F
:100DDC0017FC0346012B01D1002339E0322002F02D
:100DEC0059FF7B881946786803F00AFC0346012BEF
:100DFC0001D100232CE03223FB7320E00A2002F007
:100E0C0049FFFB7B013BFB73FB7B002B17D1FA23C8
:100E1C00FB730AE00A2002F03DFFFB7B013BFB73F6
:100E2C00FB7B002B01D1032312E07B8819467868E9
:100E3C0003F0E6FB0346002BECD0022308E07B8892
:100E4C001946786803F0DCFB0346002BD6D001234F
:100E5C0018461037BD4680BD80B586B000AFB64B86
:100E6C000F221A70FF23FB75B448FFF7A3FC002276
:100E7C000021B248FFF720FCB149B048FFF783FCD2
:100E8C0001220021AD48FFF717FCAE49AB48FFF734
:100E9C007AFC01F0B0BE4FF40041AB48FFF78EFF77
:100EAC000346002B6ED0A44B0F221A70FB7D01332E
:100EBC00FB75FB7D032B01D8FB7D00E00023FB754C
:100ECC00FB7D022B32D0022B46DC002B02D0012BF7
:100EDC0016D041E09948FFF76DFC0022002197489D
:100EEC00FFF7EAFB99499548FFF74DFC01220021D9
:100EFC009248FFF7E1FB96499048FFF744FC41E02C
:100F0C008E48FFF757FC002200218C48FFF7D4FBDA
:100F1C008C498A48FFF737FC012200218748FFF7EC
:100F2C00CBFB8C498548FFF72EFC2BE08348FFF761
:100F3C0041FC002200218148FFF7BEFB84497F4819
:100F4C00FFF721FC012200217C48FFF7B5FB824909
:100F5C007A48FFF718FC15E07848FFF72BFC0022C5
:100F6C0000217648FFF7A8FB7C497448FFF70BFC7F
:100F7C00012200217148FFF79FFB79496F48FFF769
:100F8C0002FC00BF4FF480717648FFF717FF034651
:100F9C00002B01F03086684B0F221A70FB7D022B60
:100FAC0001F00D86022B01F32286002B04D0012BBD
:100FBC0000F04D8501F01BBE6048FFF7FBFB0022E3
:100FCC0000215E48FFF778FB67495C48FFF7DBFBC5
:100FDC00012200215948FFF76FFB64495748FFF77E
:100FEC00D2FB0023BB7501237B7500F015BD524B62
:100FFC001B78002B08D15148FFF7DCFB4FF47A70BB
:10100C0002F048FE01F003BE4FF400414E48FFF7DA
:10101C00D5FE0346002B54D0474B0F221A70BB7DD4
:10102C000133BB75BB7D022B01D8BB7D00E00023D7
:10103C00BB75BB7D012B02D0022B16D02BE03F4899
:10104C00FFF7B8FB002200213C48FFF735FB48496D
:10105C003A48FFF798FB012200213848FFF72CFB98
:10106C0044493648FFF78FFB2BE03448FFF7A2FBCF
:10107C00002200213148FFF71FFB3C492F48FFF7A6
:10108C0082FB012200212D48FFF716FB3A492B4821
:10109C00FFF779FB15E02948FFF78CFB00220021B4
:1010AC002648FFF709FB33492448FFF76CFB012264
:1010BC0000212248FFF700FB30492048FFF763FB73
:1010CC0000BF4FF480712748FFF778FE0346002BD2
:1010DC0000F0A284184B0F221A70BB7D012B04D098
:1010EC00022B00F0618200F094BC1448FFF762FB05
:1010FC00002200211148FFF7DFFA21490F48FFF7C2
:10110C0042FB012200210D48FFF7D6FA1D490B487E
:10111C00FFF739FB01233B750123FB742AE2064BD5
:10112C001B78002B30D10548FFF744FB4FF47A7045
:10113C0002F0B0FD01F06BBD00000020F4000020B7
:10114C00BC5C0008CC5C0008000C0140DC5C0008B6
:10115C00EC5C0008F85C0008045D0008105D0008F9
:10116C001C5D000800080140285D0008345D000883
:10117C00485D00085C5D00086C5D00087C5D000843
:10118C00845D0008905D00084FF40041B748FFF7FC
:10119C0015FE0346002B00F08B80B54B0F221A7006
:1011AC003B7D01333B753B7D042B01D83B7D00E03F
:1011BC0000233B753B7D013B032B63D801A252F806
:1011CC0023F000BFE11100080D12000839120008CD
:1011DC0065120008A748FFF7EDFA00220021A54888
:1011EC00FFF76AFAA449A348FFF7CDFA01220021C0
:1011FC00A048FFF761FAA1499E48FFF7C4FA57E0EF
:10120C009C48FFF7D7FA002200219A48FFF754FABE
:10121C009B499848FFF7B7FA012200219548FFF740
:10122C004BFA98499348FFF7AEFA41E09148FFF723
:10123C00C1FA002200218F48FFF73EFA92498D48EF
:10124C00FFF7A1FA012200218A48FFF735FA8F49EE
:10125C008848FFF798FA2BE08648FFF7ABFA002294
:10126C0000218448FFF728FA89498248FFF78BFA56
:10127C00012200217F48FFF71FFA86497D48FFF7BE
:10128C0082FA15E07B48FFF795FA00220021794895
:10129C00FFF712FA7D497748FFF775FA0122002112
:1012AC007448FFF709FA7C497248FFF76CFA00BFE3
:1012BC004FF480717948FFF781FD0346002B00F055
:1012CC0059816B4B0F221A70BB7D1B01DAB23B7D2F
:1012DC001344BB703B7D013B032B00F2488101A200
:1012EC0052F823F0011300088F1300081D14000896
:1012FC00ED140008BB78184601F0FAFE0346002BEB
:10130C0025D05C48FFF756FA002200215948FFF718
:10131C00D3F963495748FFF736FA4FF47A7002F065
:10132C00B9FC5448FFF746FA002200215148FFF758
:10133C00C3F951494F48FFF726FA012200214D48C5
:10134C00FFF7BAF94D494B48FFF71DFA12E1BB788C
:10135C00184601F009FD4748FFF72CFA002200213E
:10136C004448FFF7A9F944494248FFF70CFA012217
:10137C0000214048FFF7A0F940493E48FFF703FA27
:10138C00F8E0BB78184601F0B3FE0346002B25D0DD
:10139C003848FFF70FFA002200213648FFF78CF986
:1013AC0040493448FFF7EFF94FF47A7002F072FCC1
:1013BC003048FFF7FFF9002200212E48FFF77CF997
:1013CC002F492C48FFF7DFF9012200212948FFF7AC
:1013DC0073F92C492748FFF7D6F9CBE0BB781846B0
:1013EC0001F0C2FC2348FFF7E5F900220021214857
:1013FC00FFF762F922491F48FFF7C5F901220021C6
:10140C001C48FFF759F91F491A48FFF7BCF9B1E01E
:10141C00BB78184601F06CFE0346002B46D01548ED
:10142C00FFF7C8F9002200211248FFF745F91E49C1
:10143C001048FFF7A8F94FF47A7002F02BFC0D4816
:10144C00FFF7B8F9002200210A48FFF735F90E49D9
:10145C000848FFF798F9012200210648FFF72CF9FC
:10146C000A490448FFF78FF984E000BF000C0140E3
:10147C0000000020F4000020845D0008905D00084E
:10148C009C5D0008A85D0008B45D0008C05D000804
:10149C00CC5D0008D85D0008E45D00080008014040
:1014AC00F05D0008005E0008105E0008BB7818466E
:1014BC0001F05AFCAA48FFF77DF900220021A84848
:1014CC00FFF7FAF8A749A648FFF75DF901220021BA
:1014DC00A348FFF7F1F8A449A148FFF754F949E0F4
:1014EC00BB78184601F004FE0346002B25D09C481F
:1014FC00FFF760F9002200219948FFF7DDF89B49BE
:10150C009748FFF740F94FF47A7002F0C3FB944808
:10151C00FFF750F9002200219148FFF7CDF89449CC
:10152C008F48FFF730F9012200218D48FFF7C4F8EE
:10153C0090498B48FFF727F91CE0BB78184601F05F
:10154C0013FC8748FFF736F9002200218448FFF787
:10155C00B3F887498248FFF716F901220021804829
:10156C00FFF7AAF883497E48FFF70DF902E0002344
:10157C00FB7400BFFB7C012B3FF4D1AD7848FFF727
:10158C0019F9002200217648FFF796F87A49744839
:10159C00FFF7F9F8012200217148FFF78DF8774920
:1015AC006F48FFF7F0F837E26D48FFF703F90022B8
:1015BC0000216B48FFF780F871496948FFF7E3F8A1
:1015CC00012200216648FFF777F86E496448FFF75F
:1015DC00DAF80123BB7401237B7400E26A4B1B789D
:1015EC00002B08D15E48FFF7E5F84FF47A7002F053
:1015FC0051FB01F00CBB4FF400416448FFF7DEFBDC
:10160C000346002B00F08A805F4B0F221A70BB7CC4
:10161C000133BB74BB7C042B01D8BB7C00E00023E2
:10162C00BB74BB7C013B032B62D801A252F823F0A4
:10163C004D16000879160008A5160008D1160008EA
:10164C004748FFF7B7F8002200214548FFF734F868
:10165C004B494348FFF797F8012200214048FFF718
:10166C002BF848493E48FFF78EF857E03C48FFF707
:10167C00A1F8002200213A48FFF71EF844493848E7
:10168C00FFF781F8012200213548FFF715F8414991
:10169C003348FFF778F841E03148FFF78BF8002228
:1016AC0000212F48FFF708F82E492D48FFF76BF85B
:1016BC00012200212A48FEF7FFFF2B492848FFF79B
:1016CC0062F82BE02648FFF775F800220021244829
:1016DC00FEF7F2FF26492248FFF755F801220021B8
:1016EC001F48FEF7E9FF23491D48FFF74CF815E0AA
:1016FC001B48FFF75FF8002200211948FEF7DCFFBA
:10170C0019491748FFF73FF8012200211448FEF74A
:10171C00D3FF21491248FFF736F800BF4FF4807110
:10172C001E48FFF74BFB0346002B00F05881164B6D
:10173C000F221A70BB7D1B01DAB2BB7C1344FB7009
:10174C00BB7C013B032B00F2478101A252F823F032
:10175C00AD1700083B180008C918000857190008F5
:10176C00F4000020B45D0008C05D0008205E000895
:10177C00CC5D0008D85D0008485D00085C5D000881
:10178C00845D0008905D000800000020000C014002
:10179C009C5D0008A85D0008E45D0008000801409D
:1017AC00FB78184601F0A4FC0346002B25D0BC485E
:1017BC00FFF700F800220021B948FEF77DFFB94978
:1017CC00B748FEF7E0FF4FF47A7002F063FAB448C2
:1017DC00FEF7F0FF00220021B148FEF76DFFB24981
:1017EC00AF48FEF7D0FF01220021AD48FEF764FFA1
:1017FC00AE49AB48FEF7C7FFF1E0FB78184601F0A5
:10180C00B3FAA748FEF7D6FF00220021A448FEF742
:10181C0053FFA549A248FEF7B6FF01220021A048BC
:10182C00FEF74AFFA1499E48FEF7ADFFD7E0FB78D3
:10183C00184601F05DFC0346002B25D09848FEF7B6
:10184C00B9FF002200219648FEF736FF98499448CC
:10185C00FEF799FF4FF47A7002F01CFA9048FEF7ED
:10186C00A9FF002200218E48FEF726FF91498C48E3
:10187C00FEF789FF012200218948FEF71DFF8E49E2
:10188C008748FEF780FFAAE0FB78184601F06CFA57
:10189C008348FEF78FFF002200218148FEF70CFFE2
:1018AC0084497F48FEF76FFF012200217C48FEF738
:1018BC0003FF81497A48FEF766FF90E0FB781846F3
:1018CC0001F016FC0346002B25D07548FEF772FF7D
:1018DC00002200217248FEF7EFFE78497048FEF7AF
:1018EC0052FF4FF47A7002F0D5F96D48FEF762FFA3
:1018FC00002200216A48FEF7DFFE71496848FEF7B6
:10190C0042FF012200216648FEF7D6FE6D4964486D
:10191C00FEF739FF63E0FB78184601F025FA6048C2
:10192C00FEF748FF002200215D48FEF7C5FE644922
:10193C005B48FEF728FF012200215948FEF7BCFE48
:10194C0060495748FEF71FFF49E0FB78184601F045
:10195C00CFFB0346002B25D05148FEF72BFF00226E
:10196C0000214F48FEF7A8FE57494D48FEF70BFFE4
:10197C004FF47A7002F08EF94948FEF71BFF0022F3
:10198C0000214748FEF798FE50494548FEF7FBFEFC
:10199C00012200214248FEF78FFE4D494048FEF7D8
:1019AC00F2FE1CE0FB78184601F0DEF93C48FEF72D
:1019BC0001FF002200213A48FEF77EFE43493848D9
:1019CC00FEF7E1FE012200213548FEF775FE404985
:1019DC003348FEF7D8FE02E000237B7400BF7B7C0B
:1019EC00012B3FF4FBAD2E48FEF7E4FE0022002154
:1019FC002B48FEF761FE37492948FEF7C4FE012249
:101A0C0000212748FEF758FE33492548FEF7BBFE58
:101A1C0002E000237B7500BF7B7D012B3FF4E7AA1E
:101A2C001F48FEF7C7FE002200211D48FEF744FEAA
:101A3C002A491B48FEF7A7FE012200211848FEF791
:101A4C003BFE27491648FEF79EFE01F0D4B8144819
:101A5C00FEF7B0FE002200211148FEF72DFE2149B1
:101A6C000F48FEF790FE012200210D48FEF724FEE0
:101A7C001D490B48FEF787FEFF233B740123FB73C4
:101A8C0001F083B8194B1B78002B31D10448FEF7B9
:101A9C0091FE4FF47A7002F0FDF801F0B8B800BF77
:101AAC00F4000020F05D0008845D0008905D0008E3
:101ABC00005E00089C5D0008A85D0008105E000830
:101ACC00B45D0008C05D0008205E0008CC5D000815
:101ADC00D85D0008345D00086C5D0008DC5C000813
:101AEC00EC5C0008305E0008405E0008000000203E
:101AFC004FF40041AE48FFF761F90346002B54D078
:101B0C00AC4B0F221A703B7C01333B743B7C022B99
:101B1C0001D83B7C00E000233B743B7C002B02D0C3
:101B2C00012B16D02BE0A448FEF744FE0022002126
:101B3C00A148FEF7C1FDA1499F48FEF724FE0122F2
:101B4C0000219D48FEF7B8FD9D499B48FEF71BFE02
:101B5C002BE09948FEF72EFE002200219648FEF756
:101B6C00ABFD98499448FEF70EFE012200219248E5
:101B7C00FEF7A2FD94499048FEF705FE15E08E484D
:101B8C00FEF718FE002200218B48FEF795FD8C49CC
:101B9C008948FEF7F8FD012200218748FEF78CFDED
:101BAC008A498548FEF7EFFD00BF4FF480718848E5
:101BBC00FFF704F90346002B00F0E7877D4B0F225B
:101BCC001A703B7C002B04D0012B00F0D38700F063
:101BDC00D9BF7948FEF7EEFD002200217648FEF7CA
:101BEC006BFD7C497448FEF7CEFD01220021724842
:101BFC00FEF762FD78497048FEF7C5FD0023BB7304
:101C0C0001237B7300F09CBF6A4B1B78002B08D11F
:101C1C006948FEF7CFFD4FF47A7002F03BF800F004
:101C2C00F6BF4FF400416248FFF7C8F80346002B9B
:101C3C0051D0BB7B0133BB73BB7B022B01D8BB7B6D
:101C4C0000E00023BB73BB7B002B02D0012B16D012
:101C5C002BE05948FEF7AEFD002200215648FEF756
:101C6C002BFD5C495448FEF78EFD012200215248A1
:101C7C00FEF722FD58495048FEF785FD2BE04E48F3
:101C8C00FEF798FD002200214B48FEF715FD534945
:101C9C004948FEF778FD012200214748FEF70CFD6C
:101CAC004F494548FEF76FFD15E04348FEF782FDAE
:101CBC00002200214048FEF7FFFC47493E48FEF752
:101CCC0062FD012200213C48FEF7F6FC3F493A48F0
:101CDC00FEF759FD00BF4FF480713D48FFF76EF8D9
:101CEC000346002B00F02C87324B0F221A70BB7B63
:101CFC00002B04D0012B00F0338600F01EBF2E48C1
:101D0C00FEF758FD002200212B48FEF7D5FC354983
:101D1C002948FEF738FD012200212748FEF7CCFCAC
:101D2C0031492548FEF72FFD01233B730123FB723C
:101D3C0000F0FCBD1F4B1B78002B08D11E48FEF792
:101D4C0039FD4FF47A7001F0A5FF00F060BF4FF43D
:101D5C0000411748FFF732F80346002B72D0154BA1
:101D6C000F221A703B7B01333B733B7B022B01D858
:101D7C003B7B00E000233B733B7B012B02D0022B0F
:101D8C0034D049E00C48FEF715FD002200210A482A
:101D9C00FEF792FC13490848FEF7F5FC01220021DE
:101DAC000548FEF789FC10490348FEF7ECFC49E0B6
:101DBC00000C014000000020F4000020505E0008E0
:101DCC00605E0008405E0008705E00087C5D0008E4
:101DDC0000080140805E00088C5E0008985E0008D8
:101DEC00A45E0008485D00085C5D0008B548FEF77D
:101DFC00E1FC00220021B348FEF75EFCB249B14879
:101E0C00FEF7C1FC01220021AE48FEF755FCAF499C
:101E1C00AC48FEF7B8FC15E0AA48FEF7CBFC002254
:101E2C000021A848FEF748FCA949A648FEF7ABFCE0
:101E3C0001220021A348FEF73FFCA649A148FEF76A
:101E4C00A2FC00BF4FF48071A348FEF7B7FF034616
:101E5C00002B00F06B85A14B0F221A703B7B012BE2
:101E6C0004D0022B00F0B98200F05DBD9548FEF75E
:101E7C00A1FC002200219348FEF71EFC98499148D2
:101E8C00FEF781FC012200218E48FEF715FC9549D6
:101E9C008C48FEF778FC0123BB7201237B7282E233
:101EAC008E4B1B78002B08D18648FEF783FC4FF431
:101EBC007A7001F0EFFE00F0AABE4FF400418A48A0
:101ECC00FEF77CFF0346002B00F08A80834B0F2229
:101EDC001A70BB7A0133BB72BB7A042B01D8BB7A64
:101EEC0000E00023BB72BB7A013B032B62D801A23A
:101EFC0052F823F0111F00083D1F0008691F00084D
:101F0C00951F00086F48FEF755FC002200216D4814
:101F1C00FEF7D2FB72496B48FEF735FC012200211B
:101F2C006848FEF7C9FB6F496648FEF72CFC57E082
:101F3C006448FEF73FFC002200216248FEF7BCFB20
:101F4C006A496048FEF71FFC012200215D48FEF73C
:101F5C00B3FB67495B48FEF716FC41E05948FEF7B6
:101F6C0029FC002200215748FEF7A6FB6149554881
:101F7C00FEF709FC012200215248FEF79DFB5E4949
:101F8C005048FEF700FC2BE04E48FEF713FC0022F5
:101F9C0000214C48FEF790FB58494A48FEF7F3FBEA
:101FAC00012200214748FEF787FB55494548FEF7BB
:101FBC00EAFB15E04348FEF7FDFB002200214148F7
:101FCC00FEF77AFB4C493F48FEF7DDFB012200216E
:101FDC003C48FEF771FB4B493A48FEF7D4FB00BF77
:101FEC004FF480713C48FEF7E9FE0346002B00F0ED
:101FFC00DA813A4B0F221A703B7B1B01DAB2BB7AA7
:10200C0013443B71BB7A013B032B00F2C98101A243
:10201C0052F823F03120000849210008152200084D
:10202C00E12200083B79184601F062F80346002BC8
:10203C0025D12448FEF7BEFB002200212148FEF7E3
:10204C003BFB31491F48FEF79EFB4FF47A7001F0C1
:10205C0021FE1C48FEF7AEFB002200211948FEF7BA
:10206C002BFB1F491748FEF78EFB01220021154858
:10207C00FEF722FB1B491348FEF785FB93E13B79E6
:10208C00184601F035F80346184601F05FF80D4884
:10209C00FEF790FB002200210A48FEF70DFB1B49BE
:1020AC000848FEF770FB4FF47A7001F0F3FD00F076
:1020BC0029FE0346002B2BD101F056F8074B0022CA
:1020CC001A7070E1F4000020345D00086C5D0008AB
:1020DC005C5D00087C5D00080008014000000020E9
:1020EC00845D0008905D0008000C01409C5D0008B8
:1020FC00A85D0008B45D0008C05D0008CC5D000858
:10210C00D85D0008E45D0008B05E0008C05E000801
:10211C00BF48FEF74FFB00220021BD48FEF7CCFA6A
:10212C00BC49BB48FEF72FFB01220021B848FEF743
:10213C00C3FAB949B648FEF726FB34E13B79184699
:10214C0000F0D6FF0346002B25D1B148FEF732FB39
:10215C0000220021AE48FEF7AFFAB049AC48FEF7BA
:10216C0012FB4FF47A7001F095FDA948FEF722FBA3
:10217C0000220021A648FEF79FFAA949A448FEF7C1
:10218C0002FB01220021A248FEF796FAA549A048BD
:10219C00FEF7F9FA07E13B79184600F0A9FF034670
:1021AC00184600F0D3FF9A48FEF704FB00220021EA
:1021BC009748FEF781FA9C499548FEF7E4FA4FF4EC
:1021CC007A7001F067FD00F09DFD0346002B05D1F0
:1021DC0000F0CAFF954B00221A70E4E08C48FEF721
:1021EC00E9FA002200218A48FEF766FA8C498848F1
:1021FC00FEF7C9FA012200218548FEF75DFA8949EC
:10220C008348FEF7C0FACEE03B79184600F070FF29
:10221C000346002B25D17E48FEF7CCFA0022002184
:10222C007B48FEF749FA82497948FEF7ACFA4FF43D
:10223C007A7001F02FFD7648FEF7BCFA00220021DF
:10224C007348FEF739FA7B497148FEF79CFA012274
:10225C0000216F48FEF730FA77496D48FEF793FA84
:10226C00A1E03B79184600F043FF0346184600F006
:10227C006DFF6748FEF79EFA002200216448FEF7C6
:10228C001BFA69496248FEF77EFA4FF47A7001F046
:10229C0001FD00F037FD0346002B05D100F064FF73
:1022AC00624B00221A707EE05948FEF783FA002236
:1022BC0000215748FEF700FA5E495548FEF763FACD
:1022CC00012200215248FEF7F7F95B495048FEF70E
:1022DC005AFA68E03B79184600F00AFF0346002BD7
:1022EC0025D14B48FEF766FA002200214848FEF73C
:1022FC00E3F952494648FEF746FA4FF47A7001F07A
:10230C00C9FC4348FEF756FA002200214048FEF76C
:10231C00D3F94B493E48FEF736FA012200213C48DE
:10232C00FEF7CAF947493A48FEF72DFA3BE03B79EC
:10233C00184600F0DDFE0346184600F007FF34484F
:10234C00FEF738FA002200213148FEF7B5F936497C
:10235C002F48FEF718FA4FF47A7001F09BFC00F04E
:10236C00D1FC0346002B05D100F0FEFE2F4B0022C2
:10237C001A7018E02648FEF71DFA002200212448A6
:10238C00FEF79AF92E492248FEF7FDF901220021A9
:10239C001F48FEF791F92B491D48FEF7F4F902E0AE
:1023AC0000237B7200BF7B7A012B3FF479AD184878
:1023BC00FEF700FA002200211548FEF77DF92249AC
:1023CC001348FEF7E0F9012200211148FEF774F9D9
:1023DC001E490F48FEF7D7F9A8E20D48FEF7EAF9B7
:1023EC00002200210A48FEF767F90A490848FEF75F
:1023FC00CAF9012200210648FEF75EF90649044895
:10240C00FEF7C1F901233B720123FB7171E200BF9E
:10241C00F4000020845D0008905D0008D05E000888
:10242C009C5D0008A85D0008C05E0008000000204C
:10243C00E05E0008B45D0008C05D0008F05E0008B6
:10244C00CC5D0008D85D0008485D00085C5D0008A4
:10245C00BB4B1B78002B07D1BA48FEF7ABF94FF4F6
:10246C007A7001F017FCD2E34FF40041B648FEF746
:10247C00A5FC0346002B00F08B80B14B0F221A7089
:10248C003B7A01333B723B7A042B01D83B7A00E058
:10249C0000233B723B7A013B032B63D801A252F819
:1024AC0023F000BFC1240008ED2400081925000802
:1024BC0045250008A348FEF77DF900220021A1481C
:1024CC00FEF7FAF8A1499F48FEF75DF901220021B9
:1024DC009C48FEF7F1F89E499A48FEF754F957E0EC
:1024EC009848FEF767F9002200219648FEF7E4F8B9
:1024FC0098499448FEF747F9012200219148FEF7CC
:10250C00DBF895498F48FEF73EF941E08D48FEF720
:10251C0051F9002200218B48FEF7CEF88F498948EB
:10252C00FEF731F9012200218648FEF7C5F88C49E7
:10253C008448FEF728F92BE08248FEF73BF900228D
:10254C0000218048FEF7B8F886497E48FEF71BF953
:10255C00012200217B48FEF7AFF883497948FEF74A
:10256C0012F915E07748FEF725F90022002175488D
:10257C00FEF7A2F87A497348FEF705F9012200210B
:10258C007048FEF799F879496E48FEF7FCF800BFE1
:10259C004FF480717648FEF711FC0346002B00F0D7
:1025AC00A881674B0F221A703B7B1B01DAB23B7A76
:1025BC0013447B713B7A013B032B00F2978101A200
:1025CC0052F823F0E1250008972600088D27000813
:1025DC00432800087B79184600F08AFD0346002B3F
:1025EC0025D15848FEF7E6F8002200215548FEF7A1
:1025FC0063F860495348FEF7C6F84FF47A7001F05F
:10260C0049FB5048FEF7D6F8002200214D48FEF752
:10261C0053F84E494B48FEF7B6F8012200214948C1
:10262C00FEF74AF84A494748FEF7ADF861E17B7975
:10263C00184600F05DFD0346184600F087FD414842
:10264C00FEF7B8F8002200213E48FEF735F84A495B
:10265C003C48FEF798F84FF47A7001F01BFB3948B0
:10266C00FEF7A8F8002200213648FEF725F8374976
:10267C003448FEF788F8012200213248FEF71CF896
:10268C0033493048FEF77FF833E17B79184600F088
:10269C002FFD0346002B25D12A48FEF78BF800228C
:1026AC0000212848FEF708F834492648FEF76BF855
:1026BC004FF47A7001F0EEFA2248FEF77BF8002214
:1026CC0000212048FDF7F8FF22491E48FEF75BF871
:1026DC00012200211B48FDF7EFFF1F491948FEF7A7
:1026EC0052F806E17B79184600F002FD03461846C5
:1026FC0000F02CFD1348FEF75DF800220021114874
:10270C00FDF7DAFF1C490F48FEF73DF84FF47A70DD
:10271C0001F0C0FA0B48FEF74DF8002200210948E1
:10272C00FDF7CAFF0B490748FEF72DF801220021DF
:10273C000448FDF7C1FF08490248FEF724F8D8E029
:10274C0000000020F4000020000C0140845D000813
:10275C00905D00089C5D0008A85D0008B45D000851
:10276C00C05D0008CC5D0008D85D0008E45D000881
:10277C0000080140B05E0008C05E0008D05E000892
:10278C007B79184600F0B4FC0346002B25D1B448E5
:10279C00FEF710F800220021B148FDF78DFFB1497A
:1027AC00AF48FDF7F0FF4FF47A7001F073FAAC48C4
:1027BC00FEF700F800220021A948FDF77DFFAA4989
:1027CC00A748FDF7E0FF01220021A548FDF774FFA3
:1027DC00A649A348FDF7D7FF8BE07B79184600F09C
:1027EC0087FC0346184600F0B1FC9D48FDF7E2FF5C
:1027FC00002200219A48FDF75FFF9D499848FDF79C
:10280C00C2FF4FF47A7001F045FA9548FDF7D2FFFC
:10281C00002200219248FDF74FFF93499048FDF7A5
:10282C00B2FF012200218E48FDF746FF8F498C48EC
:10283C00FDF7A9FF5DE07B79184600F059FC0346D3
:10284C00002B25D18648FDF7B5FF002200218448D6
:10285C00FDF732FF87498248FDF795FF4FF47A70F8
:10286C0001F018FA7E48FDF7A5FF002200217C48F4
:10287C00FDF722FF80497A48FDF785FF01220021F0
:10288C007748FDF719FF7D497548FDF77CFF30E06F
:10289C007B79184600F02CFC0346184600F056FCD9
:1028AC006F48FDF787FF002200216D48FDF704FFFC
:1028BC006F496B48FDF767FF4FF47A7001F0EAF946
:1028CC006748FDF777FF002200216548FDF7F4FE0D
:1028DC0069496348FDF757FF012200216048FDF765
:1028EC00EBFE66495E48FDF74EFF02E00023FB71EC
:1028FC0000BFFB79012B3FF4ABAD5948FDF75AFFF4
:10290C00002200215648FDF7D7FE5D495448FDF7DB
:10291C003AFF012200215248FDF7CEFE594950489A
:10292C00FDF731FF02E00023FB7200BFFB7A012BA5
:10293C003FF400AA4A48FDF73DFF00220021484819
:10294C00FDF7BAFE50494648FDF71DFF0122002154
:10295C004348FDF7B1FE4D494148FDF714FFEFE048
:10296C003F48FDF727FF002200213D48FDF7A4FE5C
:10297C0047493B48FDF707FF012200213848FDF786
:10298C009BFE44493648FDF7FEFE0123BB71BAE0BD
:10299C00414800F0CDFD0346002B40F0AA800122F7
:1029AC004FF480413D4801F042FE01224FF480512A
:1029BC003A4801F03CFE3A4B1B68184601F06AF9A4
:1029CC0000224FF48051354801F031FE00224FF4C3
:1029DC008041324801F02BFE2F4800F063F903468A
:1029EC00002B61D02C4800F05DF90346184600F02E
:1029FC007FFB0346184600F0A9FB1948FDF7DAFEE9
:102A0C00002200211648FDF757FE19491448FDF71E
:102A1C00BAFE4FF47A7001F03DF900F073F90346F9
:102A2C00002B07D100F0A0FB0123BB711D4B002232
:102A3C001A70ECE00A48FDF7BDFE002200210848A0
:102A4C00FDF73AFE12490648FDF79DFE01220021D2
:102A5C000348FDF731FE0F490148FDF794FE48E0AD
:102A6C00F4000020E05E0008B45D0008C05D0008C2
:102A7C00C05E0008F05E0008CC5D0008D85D000860
:102A8C00345D00086C5D0008805E00088C5E0008F8
:102A9C00005F0008E45D0008E4000020000C014029
:102AAC0018000020000000205A48FDF783FE002289
:102ABC0000215848FDF700FE57495648FDF763FEC4
:102ACC004FF47A7001F0E6F85248FDF773FE0022DD
:102ADC0000215048FDF7F0FD50494E48FDF753FEDC
:102AEC00012200214B48FDF7E7FD4D494948FDF710
:102AFC004AFE4FF480714B48FEF760F90346012BF8
:102B0C0001D10023BB71BB79002B7FF441AF41484D
:102B1C00FDF750FE002200213E48FDF7CDFD424955
:102B2C003C48FDF730FE012200213A48FDF7C4FD78
:102B3C003E493848FDF727FE02E000237B7300BFB7
:102B4C007B7B012B3FF460A83248FDF733FE00225B
:102B5C0000213048FDF7B0FD35492E48FDF713FE36
:102B6C00012200212B48FDF7A7FD32492948FDF72A
:102B7C000AFE0AE000F06EFC00F0F6FA2E4B002282
:102B8C001A7002E00023FB7300BFFB7B012B3EF4A9
:102B9C0079AF2048FDF70EFE002200211D48FDF7FD
:102BAC008BFD26491B48FDF7EEFD0122002119483B
:102BBC00FDF782FD22491748FDF7E5FD1BE000F00B
:102BCC0085F91448FDF7F6FD002200211148FDF7A8
:102BDC0073FD1C490F48FDF7D6FD012200210D485D
:102BEC00FDF76AFD18490B48FDF7CDFD03E0124BCC
:102BFC0000221A7000BF104B1B78002B7EF44BA9DF
:102C0C000448FDF7D7FD4FF47A7001F043F81837FC
:102C1C00BD4680BDF40000200C5F0008005F00087A
:102C2C00E45D000800080140985E0008A45E0008FE
:102C3C00505E0008605E000800000020CC5C0008BC
:102C4C00F85C0008EC5C0008045D000880B586B0F8
:102C5C0000AF7860396007F10C0308221946386818
:102C6C00FDF7EAFABB7CFF2B01D0002316E0002312
:102C7C00FB750FE0FB7D7A6813441A78FB7D1833E3
:102C8C003B4413F80C3C9A4201D0002306E0FB7D38
:102C9C000133FB75FB7D042BECD901231846183747
:102CAC00BD4680BD80B584B000AF7860144BFB602E
:102CBC0018E0FB6806331846FDF7A5FA03461A46DA
:102CCC004FF6FF739A420AD1F9687868FFF7BEFF96
:102CDC000346012B03D1FB6805331B780BE0FB6823
:102CEC000833FB60FB6805331846FDF780FA034692
:102CFC00FF2BDED1002318461037BD4680BD00BF28
:102D0C0000A0000880B582B000AF164B7B6000239A
:102D1C00FB701AE07B6806331846FDF774FA03461D
:102D2C001A464FF6FF739A420CD17B68053318464E
:102D3C00FDF75DFA03461B09DBB2012B02D1FB78D0
:102D4C000133FB707B6808337B607B680533184666
:102D5C00FDF74DFA0346FF2BDCD1FB7818460837FC
:102D6C00BD4680BD00A0000880B582B000AF034610
:102D7C00FB7100F0A1FA4A48FDF71CFD002200216E
:102D8C004748FDF799FC47494548FDF7FCFC0122F3
:102D9C0000214348FDF790FC43494148FDF7F3FC03
:102DAC0075E0424800F0C4FB0346002B67D10122BA
:102DBC004FF480413E4801F03AFC01224FF480511F
:102DCC003B4801F034FC3B4B1B68184600F062FF9B
:102DDC0000224FF48051364801F029FC00224FF4B8
:102DEC008041334801F023FC3048FFF75BFF03467A
:102DFC00002B1FD12D4AFB7953712F4B1B680622D8
:102E0C002A491846FDF7D0F92B4B1B6808332A4A80
:102E1C0013602348FDF7CEFC002200212048FDF76B
:102E2C004BFC26491E48FDF7AEFC4FF47A7000F0BF
:102E3C0031FF32E01A48FDF7BDFC00220021184892
:102E4C00FDF73AFC1E491648FDF79DFC4FF47A70CD
:102E5C0000F020FF1248FDF7ADFC002200211048C5
:102E6C00FDF72AFC0F490E48FDF78DFC01220021CD
:102E7C000B48FDF721FC0C490948FDF784FC4FF485
:102E8C0080711048FDF79AFF0346012B04D00E4BBE
:102E9C001B78002B85D100E000BF0837BD4680BDF4
:102EAC00F4000020005F0008E45D0008E40000204E
:102EBC00000C014018000020040000201C5F0008DA
:102ECC00285F0008000801400000002080B582B097
:102EDC0000AF784B1E221A707748FDF76BFC00226E
:102EEC0000217548FDF7E8FB74497348FDF74BFC6E
:102EFC00012200217048FDF7DFFB71496E48FDF798
:102F0C0042FCCCE06F4800F013FB0346002B40F072
:102F1C00BE8001224FF480416B4801F088FB0122F6
:102F2C004FF48051684801F082FB684B1B681846CF
:102F3C0000F0B0FE00224FF48051634801F077FBA3
:102F4C0000224FF48041604801F071FB5D48FFF7AF
:102F5C00A9FE0346002B29D15748FDF72BFC002274
:102F6C0000215548FDF7A8FB59495348FDF70BFCC8
:102F7C004FF47A7000F08EFE4F48FDF71BFC0022D8
:102F8C0000214D48FDF798FB4C494B48FDF7FBFBE6
:102F9C00012200214848FDF78FFB49494648FDF7BF
:102FAC00F2FB4FF47A7000F075FE70E04548FFF7C5
:102FBC0079FE0346FB71FB7903F00F03BB71FB79C0
:102FCC001B097B713C48FDF7F5FB7B79012B09D183
:102FDC00002200213848FDF76FFB3E493648FDF7CB
:102FEC00D2FB09E0002200213348FDF765FB3A498A
:102FFC003148FDF7C8FB00BFBB79032B1AD0032B5C
:10300C0022DC012B02D0022B0AD01DE00122002170
:10301C002948FDF751FB31492748FDF7B4FB1DE06A
:10302C00012200212448FDF747FB2D492248FDF7DA
:10303C00AAFB13E0012200211F48FDF73DFB2949A3
:10304C001D48FDF7A0FB09E0012200211A48FDF7FD
:10305C0033FB25491848FDF796FB00BF4FF47A70F7
:10306C0000F018FE1448FDF7A5FB002200211248C1
:10307C00FDF722FB11491048FDF785FB01220021C9
:10308C000D48FDF719FB0E490B48FDF77CFB4FF47F
:10309C0080711648FDF792FE0346012B05D0054BB7
:1030AC001B78002B7FF42EAF00E000BF0837BD4625
:1030BC0080BD00BF00000020F4000020005F00086D
:1030CC00E45D0008E4000020000C01401800002022
:1030DC000C5F0008785C0008385F0008445F00084B
:1030EC004C5F0008545F00085C5F0008000801405A
:1030FC0080B584B000AF0346FB71134BFB6015E049
:10310C00FB6806331846FDF77EF803461A464FF661
:10311C00FF739A4207D1FB6805331B78FA799A4200
:10312C0001D1FB680BE0FB680833FB60FB680533DF
:10313C001846FDF75CF80346FF2BE1D10023184637
:10314C001037BD4680BD00BF00A0000880B582B01E
:10315C0000AF78607B68063300211846FDF70CF849
:10316C0000BF0837BD4680BD80B500AF4948FDF7AC
:10317C0021FB002200214748FDF79EFA46494548AD
:10318C00FDF701FB012200214248FDF795FA434966
:10319C004048FDF7F8FA00F08FF8414800F0C8F904
:1031AC000346002BF9D101224FF480413D4801F038
:1031BC003EFA01224FF480513A4801F038FA3A4B6A
:1031CC001B68184600F066FD00224FF4805135480C
:1031DC0001F02DFA00224FF48041324801F027FA19
:1031EC002F48FFF75FFD0346002B0FD12C4B11220C
:1031FC005A712E4B1B68062229491846FCF7D4FF3E
:10320C002A4B1B680833294A136025E02148FDF737
:10321C00D1FA002200211F48FDF74EFA24491D481F
:10322C00FDF7B1FA4FF47A7000F034FD1948FDF750
:10323C00C1FA002200211748FDF73EFA164915483D
:10324C00FDF7A1FA012200211248FDF735FA1349C6
:10325C001048FDF798FAA0E70E48FDF7ABFA0022EC
:10326C0000210C48FDF728FA12490A48FDF78BFAA1
:10327C00012200210748FDF71FFA08490548FDF710
:10328C0082FA4FF47A7000F005FD0248FDF792FACD
:10329C0000BF80BDF4000020645F0008785C00086B
:1032AC00E4000020000C0140180000200400002065
:1032BC00285F0008745F000880B582B000AF0A4B2D
:1032CC007B6002E07B6808337B607B6805331846C3
:1032DC00FCF78DFF0346FF2BF4D1044A7B68136087
:1032EC0000BF0837BD4680BD00A0000804000020C8
:1032FC0080B586B000AF5148FDF75CFA0022002182
:10330C004E48FDF7D9F94E494C48FDF73CFA4D4B68
:10331C0078221A70FF237B6007F1080300221A60E1
:10332C005A609A600023FB75FF23BB754FF47A70CB
:10333C0000F0B0FC00BF4FF480714348FDF73EFD38
:10334C000346002BF7D1FB7D012219463B48FDF7C4
:10335C00B3F95F213948FDF7F7F966E04FF4004106
:10336C003A48FDF72BFD0346012B14D1BB7D0133ED
:10337C00BB75BB7D0A2B01D10023BB75FB7D0122E4
:10338C0019462E48FDF798F9BB7D3033DBB2194650
:10339C002A48FDF7D9F94FF480712B48FDF70EFD43
:1033AC000346012B41D1FB7D18333B44BA7D03F816
:1033BC00142CFB7D0133FB75FF23BB75FB7D102BA0
:1033CC0029D100237B750CE07B7D18333B4413F82B
:1033DC00142C7B7D1E49CB5C9A422BD17B7D013317
:1033EC007B757B7D0F2BEFD901224FF400511748D1
:1033FC0001F01DF941F2883000F04CFC00224FF432
:10340C000051124801F013F900F024F8FFF7ACFE5C
:10341C000C4B00221A70FB7D012219460748FDF760
:10342C004BF95F210548FDF78FF9064B1B78002BF4
:10343C0094D100E000BF1837BD4680BDF4000020D9
:10344C00845F00080000002000080140000C0140CF
:10345C000800002080B582B000AF0B4B7B6002E00F
:10346C007868FCF76DFE7868FCF7D9FE02460B46CF
:10347C00B3F1FF3F08BFB2F1FF3FF1D100BF00BF76
:10348C000837BD4680BD00BF00A0000880B400AF67
:10349C0072B600BFFEE7000080B586B002AF0346EF
:1034AC00FB71FB793B7300BF0E4B1B689B6803F0F1
:1034BC000203022BF8D107F1080207F10C010A23D1
:1034CC0000930123074801F04FFD00BF054B1B681B
:1034DC009B6803F08003802BF8D03B7A184610379A
:1034EC00BD4680BD4400002080B500AF00F0D5F88B
:1034FC008D212A2000F036F83E212B2000F032F8E6
:10350C001E212D2000F02EF800212C2000F02AF88E
:10351C007021262000F026F84021152000F022F81A
:10352C003D21112000F01EF800F0A2F800BF80BD74
:10353C0080B584B000AF78607968262000F0B5F8CB
:10354C000346FB73FB7B002B04D1786800F0A1F9D8
:10355C000346FB7300F023FAFB7B18461037BD467D
:10356C0080BD000080B582B000AF03460A46FB71F7
:10357C001346BB71002210210C4801F058F8FB795E
:10358C005B00DBB203F07E03DBB21846FFF784FF6F
:10359C00BB791846FFF780FF01221021034801F088
:1035AC0046F800BF0837BD4680BD00BF000801408B
:1035BC0080B584B000AF0346FB71002210210F4888
:1035CC0001F035F8FB795B005BB203F07E035BB274
:1035DC0063F07F035BB2DBB21846FFF75DFF0020A0
:1035EC00FFF75AFF0346FB7301221021034801F039
:1035FC001EF8FB7B18461037BD4680BD0008014005
:10360C0080B582B000AF03460A46FB711346BB710E
:10361C00FB791846FFF7CCFF03461A46BB791343D8
:10362C00DAB2FB7911461846FFF79CFF00BF08374A
:10363C00BD4680BD80B582B000AF03460A46FB7123
:10364C001346BB71FB791846FFF7B2FF03465AB21B
:10365C0097F90630DB435BB213405BB2DAB2FB790D
:10366C0011461846FFF77EFF00BF0837BD4680BDE8
:10367C0080B582B000AF1420FFF79AFF0346FB71B0
:10368C00FB7903F00303002B03D103211420FFF774
:10369C00B7FF00BF0837BD4680BD80B500AF0F2116
:1036AC000120FFF75FFF00BF80BD80B586B002AF81
:1036BC0003463960FB7107210D20FFF753FF3B6870
:1036CC00FA791A7007F10C0300933B6801223968F0
:1036DC000C2000F00FF80346FB73FB7B002B02D190
:1036EC00BB89102B01D00223FB73FB7B18461037D0
:1036FC00BD4680BD90B587B000AFB9607B60034616
:10370C00FB731346BB730223FB750023BB750023AD
:10371C007B75FB7B0C2B06D00E2B09D11223BB75B2
:10372C0010237B7505E07723BB7530237B7500E098
:10373C0000BFBB7D63F07F03DBB219460220FFF7AD
:10374C0011FF80210420FFF775FF80210A20FFF76D
:10375C0057FF00210120FFF705FF00237B820AE0C1
:10376C007B8ABA6813441B7819460920FFF7FAFEC6
:10377C007B8A01337B82BB7B9BB27A8A9A42EFD3E2
:10378C00FB7B19460120FFF7EDFEFB7B0C2B03D1D5
:10379C0080210D20FFF734FF4FF4FA637B82042065
:1037AC00FFF706FF03463B757B8A013B7B827B8AD6
:1037BC00002B0AD03B7D03F00103002B05D13A7D91
:1037CC007B7D1340DBB2002BE9D080210D20FFF76D
:1037DC0031FF7B8A002B57D00620FFF7E9FE03460A
:1037EC0003F01B03002B4DD10023FB753A7DBB7DF1
:1037FC001340DBB203F00103002B01D00123FB7556
:10380C00FB7B0C2B40D10A20FFF7D2FE03463B7505
:10381C000C20FFF7CDFE034603F007037B747B7C83
:10382C00002B0BD03B7D013B9BB2DB009AB27B7C27
:10383C009BB213449AB2BB6A1A8005E03B7D9BB2E3
:10384C00DB009AB2BB6A1A803B7D002B01D10123AD
:10385C003B753B7D102B01D910233B7500237B82DC
:10386C000AE07B8A7A68D4180920FFF7A1FE034688
:10387C0023707B8A01337B823B7D9BB27A8A9A428E
:10388C00EFD301E00223FB75FB7D18461C37BD46C8
:10389C0090BD80B586B002AF786000237B730021A9
:1038AC000D20FFF75FFE7B6893221A707B68013353
:1038BC0020221A7007F10A0300937B6802227968B0
:1038CC000C20FFF717FF0346FB73FB7B002B18D173
:1038DC000023BB7309E0BB7B7A6813441A787B7BAB
:1038EC0053407B73BB7B0133BB73BB7B032BF2D984
:1038FC00BB7B7A6813441B787A7B9A4201D00223F3
:10390C00FB73FB7B18461037BD4680BD90B587B066
:10391C0000AFF8600B467A60FB7204210520FFF7BC
:10392C0089FE80210A20FFF76BFE0023FB750AE05D
:10393C00FB7DFA6813441B7819460920FFF712FE29
:10394C00FB7D0133FB75FA7DFB7A9A42F0D30321A0
:10395C000120FFF707FEFF23FB750520FFF728FE6C
:10396C000346BB75FB7D013BFB75FB7D002B04D037
:10397C00BB7D03F00403002BEFD02220FFF718FED1
:10398C0003461A467B681A707B685C1C2120FFF783
:10399C000FFE0346237000BF1C37BD4690BD80B59B
:1039AC0084B002AF50233B7000237B703B469A1CC3
:1039BC003B4602211846FFF7A9FF3A463946BB1D84
:1039CC000093134604220C20FFF794FE00BF083727
:1039DC00BD4680BD80B485B000AF154B9B69144AC1
:1039EC0043F001039361124B9B6903F00103BB602D
:1039FC00BB680F4BDB690E4A43F08053D3610C4B11
:103A0C00DB6903F080537B607B680A4B5B68FB606F
:103A1C00FB6823F0E063FB60FB6843F00073FB6022
:103A2C00044AFB68536000BF1437BD4680BC704726
:103A3C00001002400000014080B588B000AF7860F3
:103A4C0007F1100300221A605A609A60DA607B68F2
:103A5C001B681B4A93422FD11A4B9B69194A43F49A
:103A6C0080539361174B9B6903F48053FB60FB6895
:103A7C00144B9B69134A43F004039361114B9B69EC
:103A8C0003F00403BB60BB68A0233B6102237B6192
:103A9C000323FB6107F1100319460B4800F02CFCC3
:103AAC0040233B6100237B610023BB6107F11003C2
:103ABC001946054800F020FC00BF2037BD4680BDEC
:103ACC0000300140001002400008014080B584B075
:103ADC0000AF78607B681B68B3F1804F13D10C4B3F
:103AEC00DB690B4A43F00103D361094BDB6903F03B
:103AFC000103FB60FB68002200211C2000F0C5F9CB
:103B0C001C2000F0DEF900BF1037BD4680BD00BFA1
:103B1C000010024080B400AFFEE780B400AFFEE7B7
:103B2C0080B400AFFEE780B400AFFEE780B400AF16
:103B3C00FEE780B400AF00BFBD4680BC704780B4C8
:103B4C0000AF00BFBD4680BC704780B400AF00BF63
:103B5C00BD4680BC704780B500AF00F07FF800BF59
:103B6C0080BD000080B500AF024801F0E7FC00BF4B
:103B7C0080BD00BF9C00002080B400AF00BFBD46DC
:103B8C0080BC70470C480D490D4A002302E0D45804
:103B9C00C4500433C4188C42F9D30A4A0A4C00238B
:103BAC0001E013600432A242FBD3FFF7E5FF02F001
:103BBC0025F8FCF73DFE704700000020280000208F
:103BCC00BC5F00082800002088010020FEE70000F0
:103BDC0080B500AF084B1B68074A43F01003136015
:103BEC00032000F047F90F2000F008F8FFF7F2FE71
:103BFC000023184680BD00BF0020024080B582B073
:103C0C0000AF7860124B1A68124B1B7819464FF4B0
:103C1C007A73B3FBF1F3B2FBF3F3184600F05FF9E0
:103C2C000346002B01D001230EE07B680F2B0AD832
:103C3C00002279684FF0FF3000F027F9064A7B68C4
:103C4C001360002300E0012318460837BD4680BDF1
:103C5C001C000020240000202000002080B400AFB5
:103C6C00054B1B781A46054B1B681344034A13601B
:103C7C0000BFBD4680BC70472400002060010020BE
:103C8C0080B400AF024B1B681846BD4680BC704721
:103C9C006001002080B584B000AF7860FFF7F0FFC2
:103CAC00B8607B68FB60FB68B3F1FF3F05D00A4B43
:103CBC001B781A46FB681344FB6000BFFFF7E0FF5C
:103CCC000246BB68D31AFA689A42F7D800BF00BF05
:103CDC001037BD4680BD00BF2400002080B485B0E5
:103CEC0000AF78607B6803F00703FB600C4BDB686C
:103CFC00BB60BA684FF6FF031340BB60FB681A0247
:103D0C00BB68134343F0BF6343F40033BB60044A06
:103D1C00BB68D36000BF1437BD4680BC704700BF82
:103D2C0000ED00E080B400AF044BDB681B0A03F02D
:103D3C0007031846BD4680BC704700BF00ED00E08D
:103D4C0080B483B000AF0346FB7197F90730002BAA
:103D5C000BDBFB7903F01F02064997F907305B096F
:103D6C00012000FA02F241F8232000BF0C37BD46B7
:103D7C0080BC704700E100E080B483B000AF034624
:103D8C003960FB7197F90730002B0ADB3B68DAB21C
:103D9C000C4997F907301201D2B20B4483F8002377
:103DAC000AE03B68DAB20849FB7903F00F03043BE5
:103DBC001201D2B20B441A7600BF0C37BD4680BC40
:103DCC00704700BF00E100E000ED00E080B489B076
:103DDC0000AFF860B9607A60FB6803F00703FB6121
:103DEC00FB69C3F10703042B28BF0423BB61FB69E8
:103DFC000433062B02D9FB69033B00E000237B61F3
:103E0C004FF0FF32BB6902FA03F3DA43BB681A4086
:103E1C007B699A404FF0FF317B6901FA03F3D94378
:103E2C007B680B40134318462437BD4680BC704753
:103E3C0080B582B000AF78607B68013BB3F1807FC6
:103E4C0001D301230FE00A4A7B68013B53600F2129
:103E5C004FF0FF30FFF790FF054B00229A60044BA8
:103E6C0007221A60002318460837BD4680BD00BFE4
:103E7C0010E000E080B582B000AF78607868FFF7A2
:103E8C002DFF00BF0837BD4680BD80B586B000AFA2
:103E9C000346B9607A60FB7300237B61FFF742FF36
:103EAC0078617A68B9687869FFF790FF024697F9EC
:103EBC000F3011461846FFF75FFF00BF1837BD469D
:103ECC0080BD80B582B000AF0346FB7197F9073017
:103EDC001846FFF735FF00BF0837BD4680BD80B5DB
:103EEC0082B000AF78607868FFF7A2FF03461846EF
:103EFC000837BD4680BD0000F0B587B000AFF86054
:103F0C00B960C7E900230123FB750023BB750023AF
:103F1C007B752F4B1B7E012B01D1022354E02C4BC4
:103F2C0001221A764CF2503000F0A8F80346FB75CB
:103F3C00FB7D002B44D1FB68012B02D101237B7547
:103F4C0007E0FB68022B02D102237B7501E00423FE
:103F5C007B750023BB752DE0BB7D5A00BB6802EB63
:103F6C00030CBB7D1901D7E90023C1F12006A1F197
:103F7C00200022FA01F403FA06F6344323FA00F087
:103F8C00044323FA01F5A3B21946604600F05AF82F
:103F9C004CF2503000F072F80346FB750D4B1B6968
:103FAC000C4A23F001031361FB7D002B07D1BB7D71
:103FBC000133BB75BA7D7B7D9A42CDD300E000BF47
:103FCC00034B00221A76FB7D18461C37BD46F0BD0C
:103FDC00680100200020024080B483B000AF0023B1
:103FEC00FB710D4B1B6903F08003002B0DD00A4BAA
:103FFC000A4A5A60084B0A4A5A60074B1B6903F07D
:10400C008003002B01D00123FB71FB7918460C3780
:10401C00BD4680BC704700BF0020024023016745AD
:10402C00AB89EFCD80B400AF054B1B69044A43F05C
:10403C008003136100231846BD4680BC704700BF47
:10404C000020024080B483B000AF78600B467B80C8
:10405C00084B0022DA61084B1B69074A43F0010345
:10406C0013617B687A881A8000BF0C37BD4680BC10
:10407C00704700BF680100200020024080B584B06A
:10408C0000AF7860FFF7FCFDF86010E07B68B3F1DF
:10409C00FF3F0CD07B68002B07D0FFF7F1FD0246E9
:1040AC00FB68D31A7A689A4201D2032325E0154B98
:1040BC00DB6803F00103002BE8D1124BDB6803F043
:1040CC002003002B02D00F4B2022DA600D4BDB6853
:1040DC0003F01003002B0BD10A4BDB6903F0010337
:1040EC00002B05D1074BDB6803F00403002B03D036
:1040FC0000F00AF8012300E0002318461037BD46F3
:10410C0080BD00BF0020024080B483B000AF00230C
:10411C007B60234BDB6803F01003002B09D0214B91
:10412C00DB6943F002031F4AD3617B6843F0100341
:10413C007B601B4BDB6803F00403002B09D0194B8D
:10414C00DB6943F00103174AD3617B6843F0040336
:10415C007B60134BDB6903F00103002B0BD0114B7D
:10416C00DB6943F004030F4AD3610D4BDB690C4A46
:10417C0023F00103D3617B6840F20112934206D114
:10418C00074BDB69064A23F00103D36102E0044AC2
:10419C007B68D36000BF0C37BD4680BC704700BF46
:1041AC00002002406801002080B584B000AF786028
:1041BC0039600123FB730023BB602F4B1B7E012B4B
:1041CC0001D1022353E02C4B01221A767B681B6829
:1041DC00022B16D14CF25030FFF750FF0346002B48
:1041EC0041D1012000F04CF84CF25030FFF746FF63
:1041FC000346FB73214B1B69204A23F00403136114
:10420C0031E04CF25030FFF739FF0346002B2AD136
:10421C003B684FF0FF321A607B689B68BB6019E00B
:10422C00B86800F049F84CF25030FFF727FF03460E
:10423C00FB73124B1B69114A23F002031361FB7BC6
:10424C00002B03D03B68BA681A600CE0BB6803F51E
:10425C008063BB607B68DB689A027B689B68134455
:10426C00BA689A42DCD3044B00221A76FB7B1846C0
:10427C001037BD4680BD00BF680100200020024001
:10428C0080B483B000AF7860094B0022DA61094B2F
:10429C001B69084A43F004031361064B1B69054A6A
:1042AC0043F04003136100BF0C37BD4680BC704720
:1042BC00680100200020024080B483B000AF786019
:1042CC000B4B0022DA610B4B1B690A4A43F00203C9
:1042DC001361084A7B685361064B1B69054A43F01E
:1042EC004003136100BF0C37BD4680BC704700BF54
:1042FC00680100200020024080B48BB000AF7860D1
:10430C00396000237B6200233B6269E101227B6AF6
:10431C0002FA03F3FB613B681B68FA691340BB614B
:10432C00BA69FB699A4240F058813B685B689A4ACB
:10433C0093425ED0984A934275D8984A934258D08B
:10434C00964A93426FD8964A934252D0944A9342DB
:10435C0069D8944A93424CD0924A934263D8924A79
:10436C00934246D0904A93425DD8122B2AD8122BF6
:10437C0059D801A252F823F0FF430008D943000892
:10438C00EB4300082D440008334400083344000874
:10439C003344000833440008334400083344000815
:1043AC003344000833440008334400083344000805
:1043BC00334400083344000833440008E143000848
:1043CC00F5430008794A934213D02CE03B68DB6834
:1043DC003B6229E03B68DB6804333B6224E03B68CA
:1043EC00DB6808333B621FE03B68DB680C333B62E5
:1043FC001AE03B689B68002B02D104233B6213E05C
:10440C003B689B68012B05D108233B627B68FA69EA
:10441C001A6109E008233B627B68FA695A6103E080
:10442C0000233B6200E000BFBB69FF2B01D87B6817
:10443C0001E07B6804337B61BB69FF2B02D87B6A8C
:10444C009B0002E07B6A083B9B003B617B691A681E
:10445C000F213B6901FA03F3DB431A40396A3B69CC
:10446C0001FA03F31A437B691A603B685B6803F03B
:10447C008053002B00F0B1804D4B9B694C4A43F0AC
:10448C00010393614A4B9B6903F00103BB60BB685A
:10449C00484A7B6A9B08023352F82330FB607B6AE4
:1044AC0003F003039B000F2202FA03F3DB43FA68C9
:1044BC001340FB607B68404A934213D07B683F4AB1
:1044CC0093420DD07B683E4A934207D07B683D4AAD
:1044DC00934201D1032306E0042304E0022302E00B
:1044EC00012300E000237A6A02F003029200934059
:1044FC00FA681343FB602F497B6A9B080233FA6806
:10450C0041F823203B685B6803F48033002B06D012
:10451C002D4B1A682C49BB6913430B6006E02A4BE0
:10452C001A68BB69DB43284913400B603B685B6826
:10453C0003F40033002B06D0234B5A682249BB6985
:10454C0013434B6006E0204B5A68BB69DB431E49A2
:10455C0013404B603B685B6803F48013002B06D060
:10456C00194B9A681849BB6913438B6006E0164BCC
:10457C009A68BB69DB43144913408B603B685B68EA
:10458C0003F40013002B21D00F4BDA680E49BB69E2
:10459C001343CB6021E000BF00003210000031104B
:1045AC000000221000002110000012100000111059
:1045BC00001002400000014000080140000C0140C6
:1045CC000010014000140140000401400B4BDA685C
:1045DC00BB69DB4309491340CB607B6A01337B62C7
:1045EC003B681A687B6A22FA03F3002B7FF48EAEC9
:1045FC0000BF00BF2C37BD4680BC70470004014093
:10460C0080B485B000AF78600B467B807B689A687D
:10461C007B881340002B02D00123FB7301E00023A5
:10462C00FB73FB7B18461437BD4680BC704780B4C7
:10463C0083B000AF78600B467B8013467B707B7831
:10464C00002B03D07A887B681A6103E07B881A04FC
:10465C007B681A6100BF0C37BD4680BC704780B4C4
:10466C0085B000AF78600B467B807B68DB68FB60B5
:10467C007A88FB6813401A04FB68D9437B880B408B
:10468C001A437B681A6100BF1437BD4680BC704763
:10469C0080B586B000AF78607B68002B01D1012318
:1046AC0072E27B681B6803F00103002B00F087802B
:1046BC00924B5B6803F00C03042B0CD08F4B5B68A4
:1046CC0003F00C03082B12D18C4B5B6803F4803382
:1046DC00B3F5803F0BD1894B1B6803F40033002BDF
:1046EC006CD07B685B68002B68D101234CE27B6843
:1046FC005B68B3F5803F06D1804B1B687F4A43F45F
:10470C00803313602EE07B685B68002B0CD17B4BF5
:10471C001B687A4A23F480331360784B1B68774A02
:10472C0023F4802313601DE07B685B68B3F5A02F36
:10473C000CD1724B1B68714A43F4802313606F4B8E
:10474C001B686E4A43F4803313600BE06B4B1B68A1
:10475C006A4A23F480331360684B1B68674A23F45E
:10476C00802313607B685B68002B13D0FFF788FAFB
:10477C00386108E0FFF784FA02463B69D31A642BD0
:10478C0001D9032300E25D4B1B6803F40033002BBB
:10479C00F0D014E0FFF774FA386108E0FFF770FA14
:1047AC0002463B69D31A642B01D90323ECE1534B2A
:1047BC001B6803F40033002BF0D100E000BF7B68D2
:1047CC001B6803F00203002B63D04C4B5B6803F0B7
:1047DC000C03002B0BD0494B5B6803F00C03082B2C
:1047EC001CD1464B5B6803F48033002B16D1434B32
:1047FC001B6803F00203002B05D07B681B69012B9F
:10480C0001D00123C0E13D4B1B6823F0F8027B680B
:10481C005B69DB00394913430B603AE07B681B6929
:10482C00002B20D0364B01221A60FFF729FA386191
:10483C0008E0FFF725FA02463B69D31A022B01D98F
:10484C000323A1E12D4B1B6803F00203002BF0D0D6
:10485C002A4B1B6823F0F8027B685B69DB00274955
:10486C0013430B6015E0264B00221A60FFF708FA81
:10487C00386108E0FFF704FA02463B69D31A022BB1
:10488C0001D9032380E11D4B1B6803F00203002BAD
:10489C00F0D17B681B6803F00803002B3AD07B68CF
:1048AC009B69002B19D0174B01221A60FFF7E8F90E
:1048BC00386108E0FFF7E4F902463B69D31A022B92
:1048CC0001D9032360E10D4B5B6A03F00203002B5B
:1048DC00F0D0012000F0A6FA1CE00A4B00221A606E
:1048EC00FFF7CEF938610FE0FFF7CAF902463B69D2
:1048FC00D31A022B08D9032346E100BF0010024053
:10490C000000424280044242924B5B6A03F0020375
:10491C00002BE9D17B681B6803F00403002B00F02B
:10492C00A6800023FB758B4BDB6903F08053002BB7
:10493C000DD1884BDB69874A43F08053D361854B9B
:10494C00DB6903F08053BB60BB680123FB75824BB2
:10495C001B6803F48073002B18D17F4B1B687E4AB5
:10496C0043F480731360FFF78BF9386108E0FFF7AD
:10497C0087F902463B69D31A642B01D9032303E15F
:10498C00754B1B6803F48073002BF0D07B68DB68DD
:10499C00012B06D16F4B1B6A6E4A43F00103136265
:1049AC002DE07B68DB68002B0CD16A4B1B6A694AD3
:1049BC0023F001031362674B1B6A664A23F004035E
:1049CC0013621CE07B68DB68052B0CD1614B1B6A06
:1049DC00604A43F0040313625E4B1B6A5D4A43F06A
:1049EC00010313620BE05B4B1B6A5A4A23F0010371
:1049FC001362584B1B6A574A23F0040313627B68FB
:104A0C00DB68002B15D0FFF73BF938610AE0FFF7A4
:104A1C0037F902463B69D31A41F28832934201D9E5
:104A2C000323B1E04B4B1B6A03F00203002BEED0C7
:104A3C0014E0FFF725F938610AE0FFF721F9024687
:104A4C003B69D31A41F28832934201D903239BE08C
:104A5C00404B1B6A03F00203002BEED1FB7D012BB4
:104A6C0005D13C4BDB693B4A23F08053D3617B6817
:104A7C00DB69002B00F08780364B5B6803F00C037E
:104A8C00082B61D07B68DB69022B46D1334B0022AB
:104A9C001A60FFF7F5F8386108E0FFF7F1F8024605
:104AAC003B69D31A022B01D903236DE0294B1B68F8
:104ABC0003F00073002BF0D17B681B6AB3F5803FC9
:104ACC0008D1244B5B6823F400327B689B68214936
:104ADC0013434B601F4B5B6823F474127B68196A99
:104AEC007B685B6A0B431B4913434B601B4B0122D6
:104AFC001A60FFF7C5F8386108E0FFF7C1F8024605
:104B0C003B69D31A022B01D903233DE0114B1B68DF
:104B1C0003F00073002BF0D035E0104B00221A602C
:104B2C00FFF7AEF8386108E0FFF7AAF802463B69D8
:104B3C00D31A022B01D9032326E0064B1B6803F082
:104B4C000073002BF0D11EE07B68DB69012B07D1D1
:104B5C00012319E000100240007000406000424246
:104B6C000B4B5B68FB60FB6803F480327B681B6A51
:104B7C009A4206D1FB6803F470127B685B6A9A4216
:104B8C0001D0012300E0002318461837BD4680BD34
:104B9C000010024080B584B000AF786039607B684B
:104BAC00002B01D10123D0E06A4B1B6803F00703F3
:104BBC003A689A4210D9674B1B6823F00702654983
:104BCC003B6813430B60634B1B6803F007033A68A5
:104BDC009A4201D00123B8E07B681B6803F0020302
:104BEC00002B20D07B681B6803F00403002B05D03E
:104BFC00594B5B68584A43F4E06353607B681B680D
:104C0C0003F00803002B05D0534B5B68524A43F466
:104C1C0060535360504B5B6823F0F0027B689B68D9
:104C2C004D4913434B607B681B6803F00103002B59
:104C3C0040D07B685B68012B07D1474B1B6803F4A2
:104C4C000033002B15D101237FE07B685B68022BBE
:104C5C0007D1414B1B6803F00073002B09D10123D2
:104C6C0073E03D4B1B6803F00203002B01D10123C1
:104C7C006BE0394B5B6823F003027B685B68364959
:104C8C0013434B60FEF7FCFFF8600AE0FEF7F8FFF9
:104C9C000246FB68D31A41F28832934201D90323AE
:104CAC0053E02D4B5B6803F00C027B685B689B0048
:104CBC009A42EBD1274B1B6803F007033A689A42E0
:104CCC0010D2244B1B6823F0070222493B68134384
:104CDC000B60204B1B6803F007033A689A4201D023
:104CEC00012332E07B681B6803F00403002B08D01F
:104CFC00194B5B6823F4E0627B68DB68164913434D
:104D0C004B607B681B6803F00803002B09D0124B27
:104D1C005B6823F460527B681B69DB000E4913430C
:104D2C004B6000F021F802460B4B5B681B0903F04B
:104D3C000F030A49CB5C22FA03F3094A1360094BAF
:104D4C001B681846FEF75AFF002318461037BD465D
:104D5C0080BD00BF0020024000100240A45F00088C
:104D6C001C0000202000002090B48AB000AF294B1A
:104D7C003C1D0FCB84E80F0040F201233B80002345
:104D8C00FB610023BB6100237B6200237B6100235A
:104D9C003B62214B5B68FB61FB6903F00C03042B4A
:104DAC0002D0082B03D02BE01C4B3B622BE0FB69A1
:104DBC009B0C03F00F0328333B4413F8243C7B611A
:104DCC00FB6903F48033002B12D0134B5B685B0C34
:104DDC0003F0010328333B4413F8283CBB617B6987
:104DEC000E4A03FB02F2BB69B2FBF3F37B6204E0F5
:104DFC007B690B4A02FB03F37B627B6A3B6202E03A
:104E0C00064B3B6200BF3B6A18462837BD4690BC38
:104E1C00704700BF945F00080010024000127A0037
:104E2C0000093D0080B485B000AF78600A4B1B6868
:104E3C000A4AA2FB03235B0A7A6802FB03F3FB60BA
:104E4C0000BFFB685A1EFA60002BF9D100BF00BFEF
:104E5C001437BD4680BC70471C000020D34D621037
:104E6C0080B582B000AF78607B68002B01D1012344
:104E7C0076E07B685B6A002B08D17B685B68B3F5D6
:104E8C00827F09D07B680022DA6105E07B68002212
:104E9C001A617B6800225A617B6800229A627B68E7
:104EAC0093F85130DBB2002B06D17B68002283F8DB
:104EBC0050207868FEF7C0FD7B68022283F85120F1
:104ECC007B681B681A687B681B6822F040021A60BA
:104EDC007B685B6803F482727B689B6803F4044311
:104EEC001A437B68DB6803F400631A437B681B6915
:104EFC0003F002031A437B685B6903F001031A4356
:104F0C007B689B6903F400731A437B68DB6903F0CD
:104F1C0038031A437B681B6A03F0800342EA0301DF
:104F2C007B689B6A03F400527B681B680A431A6017
:104F3C007B689B691A0C7B681B6802F004025A6040
:104F4C007B681B68DA697B681B6822F40062DA6193
:104F5C007B6800225A657B68012283F8512000236C
:104F6C0018460837BD4680BD80B58CB000AFF860E0
:104F7C00B9607A607B800123FB62002387F82B30B9
:104F8C00FB6893F85030012B01D102238AE1FB68B6
:104F9C00012283F85020FEF773FE7862FB6893F8C9
:104FAC00513087F82330FB685B68FB617B887B831F
:104FBC0097F82330012B0FD0FB69B3F5827F07D113
:104FCC00FB689B68002B03D197F82330042B03D08C
:104FDC00022387F82B305BE1BB68002B05D07B6884
:104FEC00002B02D07B88002B03D1012387F82B30B8
:104FFC004EE1FB6893F85130DBB2042B03D0FB6815
:10500C00052283F85120FB6800225A65FB687A68F8
:10501C009A63FB687A88DA87FB687A889A87FB68D8
:10502C00BA681A63FB687A88DA86FB687A889A868B
:10503C00FB6800221A64FB6800225A64FB681B6838
:10504C001B6803F04003402B07D0FB681B681A68F1
:10505C00FB681B6842F040021A60FB68DB68B3F522
:10506C00006F78D1FB685B68002B02D07B8B012B27
:10507C0066D1FB681B6B1A88FB681B68DA60FB68DF
:10508C001B6B9A1CFB681A63FB68DB8E9BB2013BA3
:10509C009AB2FB68DA8653E0FB681B689B6803F0E6
:1050AC000203022B1BD1FB68DB8E9BB2002B16D0AC
:1050BC00FB6A012B13D1FB681B6B1A88FB681B68FE
:1050CC00DA60FB681B6B9A1CFB681A63FB68DB8E4F
:1050DC009BB2013B9AB2FB68DA860023FB62FB6849
:1050EC001B689B6803F00103012B19D1FB68DB8F54
:1050FC009BB2002B14D0FB681B68DA68FB689B6BB7
:10510C0092B21A80FB689B6B9A1CFB689A63FB68D3
:10511C00DB8F9BB2013B9AB2FB68DA870123FB62FF
:10512C00FEF7AEFD02467B6AD31ABA6B9A4207D8D9
:10513C00BB6BB3F1FF3F03D0032387F82B30A7E001
:10514C00FB68DB8E9BB2002BA6D1FB68DB8F9BB27E
:10515C00002BA1D17CE0FB685B68002B02D07B8B21
:10516C00012B6BD1FB681A6BFB681B680C33127834
:10517C001A70FB681B6B5A1CFB681A63FB68DB8E8E
:10518C009BB2013B9AB2FB68DA8657E0FB681B685E
:10519C009B6803F00203022B1CD1FB68DB8E9BB2D5
:1051AC00002B17D0FB6A012B14D1FB681A6BFB6820
:1051BC001B680C3312781A70FB681B6B5A1CFB684B
:1051CC001A63FB68DB8E9BB2013B9AB2FB68DA86F2
:1051DC000023FB62FB681B689B6803F00103012B37
:1051EC0019D1FB68DB8F9BB2002B14D0FB681B68BA
:1051FC00DA68FB689B6BD2B21A70FB689B6B5A1C0B
:10520C00FB689A63FB68DB8F9BB2013B9AB2FB682D
:10521C00DA870123FB62FEF733FD02467B6AD31A61
:10522C00BA6B9A4203D8BB6BB3F1FF3F02D1BB6B95
:10523C00002B03D1032387F82B3029E0FB68DB8E8E
:10524C009BB2002BA2D1FB68DB8F9BB2002B9DD1B4
:10525C007A6AB96BF86800F0B1F80346002B06D0F7
:10526C00012387F82B30FB6820225A6510E0FB687D
:10527C009B68002B0BD100237B61FB681B68DB68F0
:10528C007B61FB681B689B687B617B6900E000BFEE
:10529C00FB68012283F85120FB68002283F8502020
:1052AC0097F82B3018463037BD4680BD80B588B096
:1052BC0000AFF860B9603B601346FB71FEF7E0FC91
:1052CC000246BB6A9B1A3A681344FB61FEF7D8FC92
:1052DC00B861394B1B685B011B0DFA6902FB03F3C8
:1052EC007B6154E03B68B3F1FF3F50D0FEF7C8FC44
:1052FC000246BB69D31AFA699A4202D9FB69002BA0
:10530C003DD1FB681B685A68FB681B6822F0E00201
:10531C005A60FB685B68B3F5827F11D1FB689B68B0
:10532C00B3F5004F04D0FB689B68B3F5806F07D1D1
:10533C00FB681B681A68FB681B6822F040021A6045
:10534C00FB689B6AB3F5005F0FD1FB681B681A689A
:10535C00FB681B6822F400521A60FB681B681A6811
:10536C00FB681B6842F400521A60FB68012283F848
:10537C005120FB68002283F85020032317E07B693F
:10538C00002B01D10023FB617B69013B7B61FB6836
:10539C001B689A68BB681340BA689A420CBF012319
:1053AC000023DBB21A46FB799A429BD100231846A4
:1053BC002037BD4680BD00BF1C00002080B586B0E4
:1053CC0002AFF860B9607A607B680093BB6800221A
:1053DC008021F868FFF76AFF0346002B07D0FB68B3
:1053EC005B6D43F02002FB685A65032300E0002349
:1053FC0018461037BD4680BD80B582B000AF7860CE
:10540C007B68002B01D1012341E07B6893F83D3090
:10541C00DBB2002B06D17B68002283F83C20786835
:10542C00FEF754FB7B68022283F83D207B681A68E8
:10543C007B6804331946104600F070FA7B68012231
:10544C0083F846207B68012283F83E207B6801228A
:10545C0083F83F207B68012283F840207B6801227F
:10546C0083F841207B68012283F842207B6801226B
:10547C0083F843207B68012283F844207B68012257
:10548C0083F845207B68012283F83D2000231846D1
:10549C000837BD4680BD000080B485B000AF786091
:1054AC007B6893F83D30DBB2012B01D001233AE04D
:1054BC007B68022283F83D207B681B68DA687B6876
:1054CC001B6842F00102DA607B681B68184A934241
:1054DC000ED07B681B68B3F1804F09D07B681B68CA
:1054EC00144A934204D07B681B68134A934211D12F
:1054FC007B681B689B6803F00703FB60FB68062B4B
:10550C0010D07B681B681A687B681B6842F001022C
:10551C001A6007E07B681B681A687B681B6842F09E
:10552C0001021A60002318461437BD4680BC704730
:10553C00002C0140000400400008004080B582B0FF
:10554C0000AF78607B681B681B6903F00203022BB9
:10555C0022D17B681B68DB6803F00203022B1BD192
:10556C007B681B686FF002021A617B6801221A7754
:10557C007B681B689B6903F00303002B03D07868DE
:10558C0000F0B1F905E0786800F0A4F9786800F053
:10559C00B3F97B6800221A777B681B681B6903F0E0
:1055AC000403042B22D17B681B68DB6803F0040323
:1055BC00042B1BD17B681B686FF004021A617B689B
:1055CC0002221A777B681B689B6903F44073002BDB
:1055DC0003D0786800F087F905E0786800F07AF974
:1055EC00786800F089F97B6800221A777B681B6861
:1055FC001B6903F00803082B22D17B681B68DB684E
:10560C0003F00803082B1BD17B681B686FF00802A2
:10561C001A617B6804221A777B681B68DB6903F0CC
:10562C000303002B03D0786800F05DF905E078687F
:10563C0000F050F9786800F05FF97B6800221A7767
:10564C007B681B681B6903F01003102B22D17B684D
:10565C001B68DB6803F01003102B1BD17B681B68E5
:10566C006FF010021A617B6808221A777B681B683E
:10567C00DB6903F44073002B03D0786800F033F936
:10568C0005E0786800F026F9786800F035F97B6859
:10569C0000221A777B681B681B6903F00103012B3E
:1056AC000ED17B681B68DB6803F00103012B07D16B
:1056BC007B681B686FF001021A617868FBF798F839
:1056CC007B681B681B6903F08003802B0ED17B6801
:1056DC001B68DB6803F08003802B07D17B681B6899
:1056EC006FF080021A61786800F077FA7B681B68AB
:1056FC001B6903F04003402B0ED17B681B68DB68F1
:10570C0003F04003402B07D17B681B686FF040020D
:10571C001A61786800F0F9F87B681B681B6903F064
:10572C002003202B0ED17B681B68DB6803F0200361
:10573C00202B07D17B681B686FF020021A617868F8
:10574C0000F042FA00BF0837BD4680BD80B584B07A
:10575C0000AF786039607B6893F83C30012B01D145
:10576C000223B3E07B68012283F83C207B68022291
:10577C0083F83D207B681B689B68FB60FB6823F00B
:10578C007703FB60FB6823F47F43FB607B681B683B
:10579C00FA689A603B681B68B3F5005F3ED0B3F5BE
:1057AC00005F00F28780B3F5805F00F08580B3F571
:1057BC00805F7FD8702B1AD0702B7BD8602B50D089
:1057CC00602B77D8502B3CD0502B73D8402B58D013
:1057DC00402B6FD8302B64D0302B6BD8202B60D063
:1057EC00202B67D8002B5CD0102B5AD062E07B6842
:1057FC0018683B6899683B685A683B68DB6800F03E
:10580C0066F97B681B689B68FB60FB6843F0770359
:10581C00FB607B681B68FA689A604EE07B681868CE
:10582C003B6899683B685A683B68DB6800F04FF945
:10583C007B681B689A687B681B6842F480429A609C
:10584C003BE07B6818683B6859683B68DB681A4624
:10585C0000F0C6F87B681B685021184600F01DF953
:10586C002BE07B6818683B6859683B68DB681A4614
:10587C0000F0E4F87B681B686021184600F00DF915
:10588C001BE07B6818683B6859683B68DB681A4604
:10589C0000F0A6F87B681B684021184600F0FDF864
:1058AC000BE07B681A683B681B681946104600F0D1
:1058BC00F4F802E000BF00E000BF7B68012283F82F
:1058CC003D207B68002283F83C20002318461037CB
:1058DC00BD4680BD80B483B000AF786000BF0C378C
:1058EC00BD4680BC704780B483B000AF786000BF09
:1058FC000C37BD4680BC704780B483B000AF786075
:10590C0000BF0C37BD4680BC704780B483B000AF7D
:10591C00786000BF0C37BD4680BC704780B485B042
:10592C0000AF786039607B681B68FB607B68294A34
:10593C0093420BD07B68B3F1804F07D07B68264A2B
:10594C00934203D07B68254A934208D1FB6823F02D
:10595C007003FB603B685B68FA681343FB607B6811
:10596C001C4A93420BD07B68B3F1804F07D07B6805
:10597C00194A934203D07B68184A934208D1FB68BA
:10598C0023F44073FB603B68DB68FA681343FB60ED
:10599C00FB6823F080023B685B691343FB607B6808
:1059AC00FA681A603B689A687B68DA623B681A6826
:1059BC007B689A627B68074A934203D13B681A69F9
:1059CC007B681A637B6801225A6100BF1437BD469D
:1059DC0080BC7047002C01400004004000080040CF
:1059EC0080B487B000AFF860B9607A60FB681B6A5E
:1059FC007B61FB681B6A23F00102FB681A62FB687F
:105A0C009B693B613B6923F0F0033B617B681B01A5
:105A1C003A6913433B617B6923F00A037B617A6922
:105A2C00BB6813437B61FB683A699A61FB687A69CE
:105A3C001A6200BF1C37BD4680BC704780B487B06B
:105A4C0000AFF860B9607A60FB681B6A23F0100243
:105A5C00FB681A62FB689B697B61FB681B6A3B6194
:105A6C007B6923F470437B617B681B037A69134366
:105A7C007B613B6923F0A0033B61BB681B013A6966
:105A8C0013433B61FB687A699A61FB683A691A6255
:105A9C0000BF1C37BD4680BC704780B485B000AFDA
:105AAC00786039607B689B68FB60FB6823F070034F
:105ABC00FB603A68FB68134343F00703FB607B68A9
:105ACC00FA689A6000BF1437BD4680BC704780B43A
